{
  "contractName": "Wallet",
  "abi": [
    {
      "anonymous": false,
      "inputs": [
        {
          "indexed": false,
          "internalType": "uint256",
          "name": "amount",
          "type": "uint256"
        }
      ],
      "name": "deposited",
      "type": "event"
    },
    {
      "anonymous": false,
      "inputs": [
        {
          "indexed": false,
          "internalType": "uint256",
          "name": "amount",
          "type": "uint256"
        },
        {
          "indexed": true,
          "internalType": "address",
          "name": "transferredTo",
          "type": "address"
        }
      ],
      "name": "transfer",
      "type": "event"
    },
    {
      "anonymous": false,
      "inputs": [
        {
          "indexed": false,
          "internalType": "uint256",
          "name": "amount",
          "type": "uint256"
        },
        {
          "indexed": true,
          "internalType": "address",
          "name": "withdrawnTo",
          "type": "address"
        }
      ],
      "name": "withdrawn",
      "type": "event"
    },
    {
      "inputs": [],
      "name": "deposit",
      "outputs": [
        {
          "internalType": "uint256",
          "name": "",
          "type": "uint256"
        }
      ],
      "stateMutability": "payable",
      "type": "function",
      "payable": true
    },
    {
      "inputs": [
        {
          "internalType": "uint256",
          "name": "amount",
          "type": "uint256"
        }
      ],
      "name": "withdraw",
      "outputs": [
        {
          "internalType": "uint256",
          "name": "",
          "type": "uint256"
        },
        {
          "internalType": "address",
          "name": "",
          "type": "address"
        }
      ],
      "stateMutability": "nonpayable",
      "type": "function"
    },
    {
      "inputs": [
        {
          "internalType": "address",
          "name": "recipient",
          "type": "address"
        },
        {
          "internalType": "uint256",
          "name": "amount",
          "type": "uint256"
        }
      ],
      "name": "transferTo",
      "outputs": [
        {
          "internalType": "address",
          "name": "",
          "type": "address"
        },
        {
          "internalType": "uint256",
          "name": "",
          "type": "uint256"
        }
      ],
      "stateMutability": "nonpayable",
      "type": "function"
    },
    {
      "inputs": [],
      "name": "getBalance",
      "outputs": [
        {
          "internalType": "uint256",
          "name": "",
          "type": "uint256"
        }
      ],
      "stateMutability": "view",
      "type": "function",
      "constant": true
    }
  ],
  "bytecode": "0x608060405234801561001057600080fd5b50610818806100206000396000f3fe60806040526004361061003f5760003560e01c806312065fe0146100445780632ccb1b301461006f5780632e1a7d4d146100ad578063d0e30db0146100eb575b600080fd5b34801561005057600080fd5b50610059610109565b6040516100669190610556565b60405180910390f35b34801561007b57600080fd5b5061009660048036038101906100919190610600565b61014f565b6040516100a492919061064f565b60405180910390f35b3480156100b957600080fd5b506100d460048036038101906100cf9190610678565b6102e9565b6040516100e29291906106a5565b60405180910390f35b6100f3610462565b6040516101009190610556565b60405180910390f35b60008060003373ffffffffffffffffffffffffffffffffffffffff1673ffffffffffffffffffffffffffffffffffffffff16815260200190815260200160002054905090565b600080826000803373ffffffffffffffffffffffffffffffffffffffff1673ffffffffffffffffffffffffffffffffffffffff16815260200190815260200160002054101561019d57600080fd5b826000803373ffffffffffffffffffffffffffffffffffffffff1673ffffffffffffffffffffffffffffffffffffffff16815260200190815260200160002060008282546101eb91906106fd565b92505081905550826000808673ffffffffffffffffffffffffffffffffffffffff1673ffffffffffffffffffffffffffffffffffffffff16815260200190815260200160002060008282546102409190610731565b925050819055508373ffffffffffffffffffffffffffffffffffffffff166108fc849081150290604051600060405180830381858888f1935050505015801561028d573d6000803e3d6000fd5b503373ffffffffffffffffffffffffffffffffffffffff167fb7760c8fd605b6ef5a068e1720c115665f9699a5c439e3c0ee9709290ff8a3bb846040516102d49190610556565b60405180910390a28383915091509250929050565b600080826000803373ffffffffffffffffffffffffffffffffffffffff1673ffffffffffffffffffffffffffffffffffffffff16815260200190815260200160002054101561036d576040517f08c379a0000000000000000000000000000000000000000000000000000000008152600401610364906107c2565b60405180910390fd5b826000803373ffffffffffffffffffffffffffffffffffffffff1673ffffffffffffffffffffffffffffffffffffffff16815260200190815260200160002060008282546103bb91906106fd565b925050819055503373ffffffffffffffffffffffffffffffffffffffff166108fc849081150290604051600060405180830381858888f19350505050158015610408573d6000803e3d6000fd5b503373ffffffffffffffffffffffffffffffffffffffff167f9e9a0c3e94415e1517985ecb15bcc13cdc4e907a7b6760a95bee46ba1ba596d38460405161044f9190610556565b60405180910390a2823391509150915091565b6000346000803373ffffffffffffffffffffffffffffffffffffffff1673ffffffffffffffffffffffffffffffffffffffff16815260200190815260200160002060008282546104b29190610731565b925050819055503073ffffffffffffffffffffffffffffffffffffffff166108fc349081150290604051600060405180830381858888f193505050501580156104ff573d6000803e3d6000fd5b507fafa91cc6e54baca31bd478a68e8a24969db1efeb7d75c196b113a48db872b6b43460405161052f9190610556565b60405180910390a134905090565b6000819050919050565b6105508161053d565b82525050565b600060208201905061056b6000830184610547565b92915050565b600080fd5b600073ffffffffffffffffffffffffffffffffffffffff82169050919050565b60006105a182610576565b9050919050565b6105b181610596565b81146105bc57600080fd5b50565b6000813590506105ce816105a8565b92915050565b6105dd8161053d565b81146105e857600080fd5b50565b6000813590506105fa816105d4565b92915050565b6000806040838503121561061757610616610571565b5b6000610625858286016105bf565b9250506020610636858286016105eb565b9150509250929050565b61064981610596565b82525050565b60006040820190506106646000830185610640565b6106716020830184610547565b9392505050565b60006020828403121561068e5761068d610571565b5b600061069c848285016105eb565b91505092915050565b60006040820190506106ba6000830185610547565b6106c76020830184610640565b9392505050565b7f4e487b7100000000000000000000000000000000000000000000000000000000600052601160045260246000fd5b60006107088261053d565b91506107138361053d565b925082820390508181111561072b5761072a6106ce565b5b92915050565b600061073c8261053d565b91506107478361053d565b925082820190508082111561075f5761075e6106ce565b5b92915050565b600082825260208201905092915050565b7f494e53554646494349454e542042414c414e4345210000000000000000000000600082015250565b60006107ac601583610765565b91506107b782610776565b602082019050919050565b600060208201905081810360008301526107db8161079f565b905091905056fea2646970667358221220c025bd15351474273127837f2522174798aaef0c4e73cc1faeb5225f0950936c64736f6c63430008110033",
  "immutableReferences": {},
  "source": "//SPDX-License-Identifier: UNLICENSED\r\npragma solidity >0.7.5;\r\n\r\ncontract Wallet {\r\n    mapping(address => uint256) balance;\r\n\r\n    event deposited(uint256 amount);\r\n    event withdrawn(uint256 amount, address indexed withdrawnTo);\r\n    event transfer(uint256 amount, address indexed transferredTo);\r\n\r\n    function deposit() public payable returns (uint256) {\r\n        balance[msg.sender] += msg.value;\r\n        payable(address(this)).transfer(msg.value);\r\n        emit deposited(msg.value);\r\n        return msg.value;\r\n    }\r\n\r\n    function withdraw(uint256 amount) public returns (uint256, address) {\r\n        require(balance[msg.sender] >= amount, \"INSUFFICIENT BALANCE!\");\r\n        balance[msg.sender] -= amount;\r\n        payable(msg.sender).transfer(amount);\r\n        emit withdrawn(amount, msg.sender);\r\n        return (amount, msg.sender);\r\n    }\r\n\r\n    function transferTo(address recipient, uint256 amount)\r\n        public\r\n        returns (address, uint256)\r\n    {\r\n        require(balance[msg.sender] >= amount);\r\n        balance[msg.sender] -= amount;\r\n        balance[recipient] += amount;\r\n        payable(recipient).transfer(amount);\r\n        emit transfer(amount, msg.sender);\r\n        return (recipient, amount);\r\n    }\r\n\r\n    function getBalance() public view returns (uint256) {\r\n        return balance[msg.sender];\r\n    }\r\n}\r\n",
  "sourcePath": "G:\\project\\Blockchain\\Wallet\\contracts\\Wallet.sol",
  "compiler": {
    "name": "solc",
    "version": "0.8.17+commit.8df45f5f.Emscripten.clang"
  },
  "schemaVersion": "3.4.11",
  "updatedAt": "2022-12-27T16:15:13.975Z",
  "networkType": "ethereum",
  "devdoc": {
    "kind": "dev",
    "methods": {},
    "version": 1
  },
  "userdoc": {
    "kind": "user",
    "methods": {},
    "version": 1
  }
}